:100000000C9436010C9455010C9455010C94550137
:100010000C9455010C9455010C9455010C94550108
:100020000C9455010C9455010C9455010C945501F8
:100030000C9455010C9482050C9455010C945501B7
:100040000C9455010C9455010C9455010C945501D8
:100050000C9455010C9455010C9455010C945501C8
:100060000C9455010C9455010C9455010C945501B8
:100070000C9455010C9455010C9455010C945501A8
:100080000C9455010C9455010C945501000000008E
:100090000000005F00000007000700147F147F14B9
:1000A000242A7F2A122313086462364955225000FD
:1000B00005030000001C2241000041221C0014081E
:1000C0003E081408083E08080050300000080808E0
:1000D0000808006060000020100804023E514945F5
:1000E0003E00427F400042615149462141454B312B
:1000F0001814127F1027454545393C4A49493001BB
:10010000710905033649494936064949291E003611
:100110003600000056360000081422410014141462
:100120001414004122140802015109063249794190
:100130003E7E1111117E7F494949363E414141229F
:100140007F4141221C7F494949417F090909013EFC
:100150004149497A7F0808087F00417F41002040DB
:10016000413F017F081422417F404040407F020C04
:10017000027F7F0408107F3E4141413E7F0909090B
:10018000063E4151215E7F091929464649494931B8
:1001900001017F01013F4040403F1F2040201F3FA1
:1001A0004038403F63140814630708700807615122
:1001B000494543007F4141000204081020004141AD
:1001C0007F0004020102044040404040000102045C
:1001D0000020545454787F484444383844444420E0
:1001E000384444487F3854545418087E0901020C9E
:1001F0005252523E7F0804047800447D4000204063
:10020000443D007F1028440000417F40007C0418DA
:1002100004787C0804047838444444387C1414146A
:1002200008081414187C7C0804040848545454200A
:10023000043F4440203C4040207C1C2040201C3C8B
:100240004030403C44281028440C5050503C4464FA
:10025000544C44000836410000007F000000413645
:1002600008001008081008000000000011241FBE3C
:10027000CFEFD0E4DEBFCDBF11E0A0E0B1E0EAEB0C
:10028000F3E100E00BBF02C007900D92AE31B10761
:10029000D9F723E0AEE1B1E001C01D92A933B20766
:1002A000E1F70E9412060C94DB090C9400001F93E6
:1002B000CF93DF9300D0CDB7DEB789836A8385E221
:1002C00090E025E230E0F90120812E7FFC012083BF
:1002D0008A81882351F085E290E025E230E0F9013F
:1002E00020812460FC01208309C085E290E025E2A2
:1002F00030E0F90120812B7FFC01208310E03CC01D
:100300008981882F90E0212F30E047E050E0BA014A
:10031000621B730B9B0102C0959587952A95E2F7A6
:1003200081709927892B51F085E290E025E230E039
:10033000F90120812860FC01208309C085E290E05A
:1003400025E230E0F9012081277FFC01208385E24E
:1003500090E025E230E0F90120812061FC0120835A
:1003600085E290E025E230E0F90120812F7EFC015A
:100370002083812F11E0180F183010F285E290E0F1
:1003800025E230E0F90120812160FC01208300009A
:100390000F900F90DF91CF911F910895CF93DF932E
:1003A0001F92CDB7DEB7898360E089810E94570133
:1003B00000000F90DF91CF910895CF93DF931F92AC
:1003C000CDB7DEB7898361E089810E9457010000C3
:1003D0000F90DF91CF9108950F931F93CF93DF93E9
:1003E000CDB7DEB76C970FB6F894DEBF0FBECDBFAA
:1003F00084E290E024E230E0F90120812160FC01F8
:10040000208384E290E024E230E0F9012081226040
:10041000FC01208384E290E024E230E0F9012081B5
:100420002460FC01208384E290E024E230E0F901C2
:1004300020812860FC01208384E290E024E230E007
:10044000F90120812061FC01208385E290E025E212
:1004500030E0F90120812260FC01208385E290E0F8
:1004600025E230E0F90120812160FC01208380E059
:1004700090E0A0E2B1E489839A83AB83BC8320E05F
:1004800030E04AE753E469817A818B819C810E9444
:100490004609DC01CB018B8B9C8BAD8BBE8B20E0A6
:1004A00030E040E85FE36B897C898D899E890E94FA
:1004B000C00888232CF481E090E0988F8F8B3FC098
:1004C00020E03FEF4FE757E46B897C898D899E8957
:1004D0000E94410918164CF520E030E040E251E45A
:1004E00069817A818B819C810E944609DC01CB0164
:1004F000BC01CD010E94C508DC01CB01988F8F8B18
:100500000FC089E190E09A8F898F898D9A8D01972C
:10051000F1F79A8F898F8F89988D0197988F8F8B9C
:100520008F89988D892B69F714C06B897C898D8997
:100530009E890E94C508DC01CB01988F8F8B8F8923
:10054000988D9C8F8B8F8B8D9C8D0197F1F79C8F55
:100550008B8F85E290E025E230E0F90120812D7F4C
:10056000FC01208380E090E0ACE8B2E48D839E83C0
:10057000AF83B88720E030E04AE753E46D817E81A5
:100580008F8198850E944609DC01CB0189879A8773
:10059000AB87BC8720E030E040E85FE369857A857F
:1005A0008B859C850E94C00888232CF481E090E014
:1005B0009E878D873FC020E03FEF4FE757E4698576
:1005C0007A858B859C850E94410918164CF520E0A0
:1005D00030E040E251E46D817E818F8198850E94F8
:1005E0004609DC01CB01BC01CD010E94C508DC013C
:1005F000CB019E878D870FC089E190E0988B8F8714
:100600008F8598890197F1F7988B8F878D859E85C7
:1006100001979E878D878D859E85892B69F714C0EC
:1006200069857A858B859C850E94C508DC01CB0194
:100630009E878D878D859E859A8B898B89899A89DE
:100640000197F1F79A8B898B85E290E025E230E003
:10065000F90120812260FC01208385E290E025E2FF
:1006600030E0F90120812E7FFC01208381E20E948D
:10067000CE0183E10E94CE0186E00E94CE0182EC91
:100680000E94CE0180E20E94CE0189E00E94CE014C
:1006900080E80E94CE0180E40E94CE0100E010E0DC
:1006A00005C080E00E94DD010F5F1F4F083FF1E0B1
:1006B0001F07B8F388E00E94CE018CE00E94CE01B3
:1006C00000006C960FB6F894DEBF0FBECDBFDF9171
:1006D000CF911F910F9108950F931F93CF93DF93A5
:1006E000CDB7DEB780E80E94CE0180E40E94CE0143
:1006F000109216031092170300E010E007C0C80123
:10070000825E9E4FFC0110820F5F1F4F083FF1E099
:100710001F07A8F30000DF91CF911F910F9108955B
:10072000CF93DF931F92CDB7DEB78983898188236A
:1007300011F080E201C084E20E94CE0100000F901F
:10074000DF91CF910895CF93DF9300D000D01F9217
:10075000CDB7DEB78B836C834D838C818695869570
:100760008695882F90E044E5489F9001499F300D81
:1007700011248B81882F90E0820F931F825E9E4F01
:100780009A8389838D818823C9F089819A81FC01AC
:100790008081482F8C81882F90E09C01277033271F
:1007A00081E090E002C0880F991F2A95E2F7842B20
:1007B000282F89819A81FC01208319C089819A811F
:1007C000FC018081482F8C81882F90E09C0127704C
:1007D000332781E090E002C0880F991F2A95E2F745
:1007E00080958423282F89819A81FC012083000031
:1007F0000F900F900F900F900F90DF91CF91089571
:100800000F931F93CF93DF9300D000D01F92CDB7EB
:10081000DEB78C836D8310E066C000E04FC08C8132
:10082000082E000C990B9C01205231099D81812FCB
:10083000692F0E94B408482F50E0C901880F991F02
:10084000880F991F820F931F840F951F84579F4F06
:100850009A83898389819A81FC0184918B838B811E
:10086000282F30E09D81802F692F0E94B408882FA7
:1008700090E0A90102C0559547958A95E2F7CA0113
:1008800081709927892B61F080911703982F900F21
:1008900080911603810F41E0692F0E94A3030BC0D2
:1008A00080911703982F900F80911603810F40E0DD
:1008B000692F0E94A303802F01E0080F402F50E012
:1008C0008D81282F30E0C901880F991F880F991F4B
:1008D000880F991F821B930B481759070CF49FCF61
:1008E000812F11E0180F412F50E08D81282F30E02B
:1008F000C901880F991F880F991F820F931F4817EE
:1009000059070CF48ACF209116039D81892F880FF7
:10091000880F890F820F8F5F8093160380911603D3
:10092000843570F010921603209117039D81892F52
:10093000880F880F880F891B820F8F5F80931703A2
:1009400080911703803320F0109216031092170342
:1009500000000F900F900F900F900F90DF91CF91AC
:100960001F910F910895CF93DF9300D01F92CDB7C1
:10097000DEB79A8389836B830CC089819A819C013D
:100980002F5F3F4F3A832983FC0180816B810E9456
:10099000000489819A81FC018081882371F700001D
:1009A0000F900F900F90DF91CF910895CF93DF9329
:1009B00000D0CDB7DEB789836A838981809316031F
:1009C0008A818093170300000F900F90DF91CF91E1
:1009D00008950F931F93CF93DF93CDB7DEB780E8D1
:1009E0000E94CE0180E40E94CE0100E010E009C028
:1009F000C801825E9E4FFC0180810E94DD010F5F75
:100A00001F4F083FF1E01F0798F30000DF91CF91DF
:100A10001F910F910895CF93DF9300D01F92CDB710
:100A2000DEB789837B836A8389818A3031F48A8146
:100A30009B81BC018DE00E940B0580EC90E0FC01E5
:100A40008081882F90E080729927892BB1F386EC02
:100A500090E02981FC01208380E090E00F900F90CE
:100A60000F90DF91CF910895CF93DF93CDB7DEB78D
:100A700081E890E02BE0FC01208388E890E02DE7FE
:100A800030E0FC01318320838FE690E022E0FC011E
:100A9000208384E890E0FC011182108280910E0195
:100AA00090910F01A0911001B09111018093190351
:100AB00090931A03A0931B03B0931C038FE590E05F
:100AC0002FE530E0F90120812068FC01208300003F
:100AD000DF91CF910895CF93DF93CDB7DEB781E853
:100AE00090E0FC0110820000DF91CF910895CF9338
:100AF000DF93CDB7DEB781E0809318030000DF916C
:100B0000CF9108951F920F9200905F000F921124D1
:100B100000905B000F922F933F934F935F936F93DF
:100B20007F938F939F93AF93BF93EF93FF93CF9355
:100B3000DF93CDB7DEB78091190390911A03A0918E
:100B40001B03B0911C030197A109B10980931903FC
:100B500090931A03A0931B03B0931C038091190375
:100B600090911A03A0911B03B0911C03892B8A2B2F
:100B70008B2B91F40E94770580910E0190910F01CB
:100B8000A0911001B09111018093190390931A0361
:100B9000A0931B03B0931C030000DF91CF91FF9142
:100BA000EF91BF91AF919F918F917F916F915F91E5
:100BB0004F913F912F910F9000925B000F90009208
:100BC0005F000F901F901895CF93DF9300D000D057
:100BD000CDB7DEB769837A838B839C8389819A81C1
:100BE000AB81BC8180930E0190930F01A093100103
:100BF000B093110180910E0190910F01A09110010D
:100C0000B09111018093190390931A03A0931B03D1
:100C1000B0931C0300000F900F900F900F90DF9186
:100C2000CF910895CF93DF9300D01F92CDB7DEB759
:100C300087E290E02FEFFC01208388E290E0FC0146
:100C4000108281E290E0FC01108282E290E02FEFBE
:100C5000FC0120838AE290E0FC0110828BE290E0AC
:100C60002FEFFC0120830E941C080E94340564E6DB
:100C700070E080E090E00E94E4050E94EC0184E6D0
:100C80008B831A82198292C080E290E020E230E0E9
:100C9000F90120812F70FC01208329813A814BE0EA
:100CA000429FC001439F900D11248D5D9C4FFC011C
:100CB000208131814281538169817A81EBE0E69F15
:100CC000C001E79F900D1124815E9C4FFC01808143
:100CD0009181A281B381281739074A075B07D0F1B8
:100CE00029813A814BE0429FC001439F900D11241E
:100CF000895D9C4FFC012081318149815A816BE0E3
:100D0000649FC001659F900D1124825E9C4FFC0181
:100D10008081082E000C990BF9010995582F298123
:100D20003A814BE0429FC001439F900D1124825EA7
:100D30009C4FFC01508329813A814BE0429FC001C6
:100D4000439F900D11248D5D9C4FFC0110821182F8
:100D50001282138229813A814BE0429FC001439F56
:100D6000900D11248D5D9C4FFC01208131814281C9
:100D700053818B81882F90E0A0E0B0E0820F931F19
:100D8000A41FB51F49815A816BE0649F9001659F44
:100D9000300D11242D5D3C4FF90180839183A28396
:100DA000B38389819A8101969A8389838091130103
:100DB000282F30E089819A81821793070CF464CF41
:100DC0000000809118038823E1F31092180359CF93
:100DD000CF93DF9300D0CDB7DEB79A838983898123
:100DE0009A8181309105A9F0823091051CF4892BFC
:100DF00039F03FC08230910559F1039721F139C094
:100E000081E090E09A83898310921D03109234034D
:100E100030C01092340389E290E0FC018081882F79
:100E200090E081709927892B29F081E090E09A83E6
:100E300089831FC083E090E09A83898310921D0309
:100E40001092120116C082E090E09A83898311C04B
:100E500080911201853040F081E090E09A8389838F
:100E600081E08093340304C082E090E09A83898318
:100E7000000089819A8181309105D9F00297D9F4D7
:100E8000809112018F5F8093120180911D03880F62
:100E900080931D0389E290E0FC018081882F90E01F
:100EA00081709927982F80911D03890F80931D03CE
:100EB00003C0000001C0000089819A810F900F904B
:100EC000DF91CF910895CF93DF9300D0CDB7DEB7F8
:100ED0009A83898389819A81009719F0019731F06B
:100EE0000AC081E090E09A83898305C081E090E0A8
:100EF0009A838983000089819A81009709F494C0BC
:100F0000019709F092C080913403882309F489C0C5
:100F10001092340388E290E020911D03FC012083AD
:100F20000E946C0380911201853039F061E070E01D
:100F300084E191E00E94B30474C080911D03882372
:100F400039F461E070E085E390E00E94000469C03C
:100F500080911D03813039F461E070E084E390E01A
:100F60000E9400045EC080911D03833039F461E06B
:100F700070E083E390E00E94000453C080911D0361
:100F8000873039F461E070E082E390E00E94000471
:100F900048C080911D038F3039F461E070E081E337
:100FA00090E00E9400043DC080911D03803139F41F
:100FB00061E070E086E390E00E94000432C080911E
:100FC0001D03883139F461E070E087E390E00E940E
:100FD000000427C080911D038C3139F461E070E07A
:100FE00088E390E00E9400041CC080911D038E31B4
:100FF00039F461E070E089E390E00E94000411C0E0
:1010000080911D038F3139F461E070E080E390E05E
:101010000E94000406C061E070E084E191E00E945B
:10102000B3040E94E90401C0000089819A810F90F5
:101030000F90DF91CF910895CF93DF9300D0CDB77C
:10104000DEB71A82198229813A814BE0429FC001A2
:10105000439F900D1124825E9C4FFC0110822981D8
:101060003A814BE0429FC001439F900D11249C01A7
:10107000215E3C4F84E690E0A0E0B0E0F90180837F
:101080009183A283B38329813A814BE0429FC001BF
:10109000439F900D11249C012D5D3C4F84E690E010
:1010A000A0E0B0E0F90180839183A283B38329811A
:1010B0003A814BE0429FC001439F900D1124895D0E
:1010C0009C4F28EE36E0FC013183208389819A8190
:1010D00001969A83898329813A814BE0429FC0011E
:1010E000439F900D1124825E9C4FFC011082298148
:1010F0003A814BE0429FC001439F900D11249C0117
:10110000215E3C4F84E690E0A0E0B0E0F9018083EE
:101110009183A283B38329813A814BE0429FC0012E
:10112000439F900D11249C012D5D3C4F84E690E07F
:10113000A0E0B0E0F90180839183A283B383298189
:101140003A814BE0429FC001439F900D1124895D7D
:101150009C4F23E637E0FC013183208300000F9091
:101160000F90DF91CF910895991B79E004C0991FEA
:10117000961708F0961B881F7A95C9F780950895F1
:101180000E94F40808F481E008950E94200988F084
:101190009F5798F0B92F9927B751B0F0E1F0660F3B
:1011A000771F881F991F1AF0BA95C9F714C0B1307C
:1011B00091F00E943A09B1E008950C943A09672F22
:1011C000782F8827B85F39F0B93FCCF386957795AB
:1011D0006795B395D9F73EF4909580957095619594
:1011E0007F4F8F4F9F4F0895990F0008550FAA0BFF
:1011F000E0E8FEEF16161706E807F907C0F012162A
:101200001306E407F50798F0621B730B840B950B2C
:1012100039F40A2661F0232B242B252B21F4089581
:101220000A2609F4A140A6958FEF811D811D08951E
:1012300057FD9058440F551F59F05F3F71F0479587
:10124000880F97FB991F61F09F3F79F0879508956C
:10125000121613061406551FF2CF4695F1DF08C08B
:10126000161617061806991FF1CF869571056105A8
:1012700008940895E894BB2766277727CB0197F950
:1012800008950E94F40808F48FEF08950E94590908
:101290000C94CA090E94BC0938F00E94C30920F0CE
:1012A000952311F00C94B3090C94B90911240C94F2
:1012B0003B090E94180970F3959FC1F3950F50E008
:1012C000551F629FF001729FBB27F00DB11D639FF8
:1012D000AA27F00DB11DAA1F649F6627B00DA11D9E
:1012E000661F829F2227B00DA11D621F739FB00D44
:1012F000A11D621F839FA00D611D221F749F3327B4
:10130000A00D611D231F849F600D211D822F762F4C
:101310006A2F11249F5750409AF0F1F088234AF029
:10132000EE0FFF1FBB1F661F771F881F9150504095
:10133000A9F79E3F510580F00C94B3090C943B092A
:101340005F3FE4F3983ED4F3869577956795B7951C
:10135000F795E7959F5FC1F7FE2B880F911D969536
:10136000879597F9089597F99F6780E870E060E0A6
:1013700008959FEF80EC089500240A94161617062E
:1013800018060906089500240A9412161306140676
:1013900005060895092E0394000C11F4882352F0D9
:1013A000BB0F40F4BF2B11F460FF04C06F5F7F4F91
:0A13B0008F4F9F4F0895F894FFCF70
:1013BA0000000002000000000B0500000000010010
:0E13CA00000005026E6F206D61746368000004
:00000001FF
