:100000000C9446000C9465000C9465000C946500FB
:100010000C9465000C9465000C9465000C946500CC
:100020000C9465000C9465000C9465000C946500BC
:100030000C9465000C94DE000C9465000C94650033
:100040000C9465000C9465000C9465000C9465009C
:100050000C9465000C9465000C9465000C9465008C
:100060000C9465000C9465000C9465000C9465007C
:100070000C9465000C9465000C9465000C9465006C
:100080000C9465000C9465000C94650011241FBE4F
:10009000CFEFD0E4DEBFCDBF11E0A0E0B1E0E2E6FB
:1000A000FAE000E00BBF02C007900D92AA31B10741
:1000B000D9F721E0AAE1B1E001C01D92A835B2074D
:1000C000E1F70E946E010C942F050C940000CF9371
:1000D000DF9300D01F92CDB7DEB789837B836A831D
:1000E00089818A3031F48A819B81BC018DE00E9434
:1000F000670080EC90E0FC018081882F90E08072A6
:100100009927892BB1F386EC90E02981FC012083AB
:1001100080E090E00F900F900F90DF91CF910895C5
:10012000CF93DF93CDB7DEB781E890E02BE0FC0101
:10013000208388E890E02DE730E0FC0131832083C4
:100140008FE690E022E0FC01208384E890E0FC014F
:100150001182108280910E0190910F01A0911001E7
:10016000B091110180931B0190931C01A0931D017C
:10017000B0931E018FE590E02FE530E0F90120817A
:100180002068FC0120830000DF91CF910895CF9378
:10019000DF93CDB7DEB781E890E0FC01108200006C
:1001A000DF91CF910895CF93DF93CDB7DEB781E094
:1001B00080931A010000DF91CF9108951F920F9252
:1001C00000905F000F92112400905B000F922F931C
:1001D0003F934F935F936F937F938F939F93AF93CF
:1001E000BF93EF93FF93CF93DF93CDB7DEB78091AB
:1001F0001B0190911C01A0911D01B0911E0101975E
:10020000A109B10980931B0190931C01A0931D01CA
:10021000B0931E0180911B0190911C01A0911D01C2
:10022000B0911E01892B8A2B8B2B91F40E94D30055
:1002300080910E0190910F01A0911001B0911101D8
:1002400080931B0190931C01A0931D01B0931E018C
:100250000000DF91CF91FF91EF91BF91AF919F91FE
:100260008F917F916F915F914F913F912F910F905F
:1002700000925B000F9000925F000F901F90189506
:10028000CF93DF9300D000D0CDB7DEB769837A83F8
:100290008B839C8389819A81AB81BC8180930E0181
:1002A00090930F01A0931001B093110180910E0162
:1002B00090910F01A0911001B091110180931B0149
:1002C00090931C01A0931D01B0931E0100000F909C
:1002D0000F900F900F90DF91CF910895CF93DF9300
:1002E00000D01F92CDB7DEB781E290E0FC01108212
:1002F00082E290E0FC01108287E290E02FEFFC01A7
:10030000208388E290E0FC01108284E290E02FEFED
:10031000FC01208385E290E02FEFFC0120830E9406
:1003200007040E94900064E670E080E090E00E9484
:10033000400184E68B8388E290E024E0FC01208386
:100340001A82198292C080E290E020E230E0F90146
:1003500020812F70FC01208329813A814BE0429F4C
:10036000C001439F900D1124855D9E4FFC012081AB
:1003700031814281538169817A81EBE0E69FC0013E
:10038000E79F900D1124895D9E4FFC018081918132
:10039000A281B381281739074A075B07D0F1298169
:1003A0003A814BE0429FC001439F900D1124815D33
:1003B0009E4FFC012081318149815A816BE0649F0D
:1003C000C001659F900D11248A5D9E4FFC018081C4
:1003D000082E000C990BF9010995582F29813A81B3
:1003E0004BE0429FC001439F900D11248A5D9E4FB8
:1003F000FC01508329813A814BE0429FC001439F19
:10040000900D1124855D9E4FFC0110821182128295
:10041000138229813A814BE0429FC001439F900D96
:100420001124855D9E4FFC012081318142815381E1
:100430008B81882F90E0A0E0B0E0820F931FA41F73
:10044000B51F49815A816BE0649F9001659F300D13
:100450001124255D3E4FF90180839183A283B383EC
:1004600089819A8101969A83898380911601282F28
:1004700030E089819A81821793070CF464CF0000E1
:1004800080911A018823E1F310921A0159CFCF937A
:10049000DF9300D0CDB7DEB79A83898389819A81B3
:1004A00081309105A1F0823091051CF4892B39F03F
:1004B0003CC082309105D9F00397F1F036C085E059
:1004C00080931F0181E090E09A8389832EC080E2AF
:1004D00090E0FC018081882329F082E090E09A83FB
:1004E000898323C081E090E09A8389831EC083E0E2
:1004F00090E09A83898319C01092210180E290E0F4
:10050000FC018081882F90E08F709927892B41F41E
:1005100081E090E09A83898384E080931F0104C086
:1005200083E090E09A838983000089819A818130F9
:10053000910509F45BC0823091050CF459C0029713
:1005400009F058C082E08093210180E290E0FC0134
:100550008081882F90E081709927892B79F0809194
:1005600018018F5F8093180180911F0180931F01F4
:1005700080912001880F809320011EC080E290E0CE
:10058000FC018081882F90E082709927892BA1F04F
:10059000809118018F5F8093180180911F01816005
:1005A00080931F0180912001880F8093200180910A
:1005B00020018F5F8093200180E290E0FC01808128
:1005C000882F90E084709927892BB1F082E0809386
:1005D0001F0181E08093220180912001882319F47A
:1005E00081E0809318011092200106C0000005C030
:1005F000000003C0000001C0000089819A810F90B3
:100600000F90DF91CF910895CF93DF9300D0CDB7B6
:10061000DEB79A83898389819A818130910541F17E
:100620008230910541F0892B09F03FC082E090E0D3
:100630009A8389833AC0809121018823A1F0809117
:10064000210181508093210181E090E09A83898388
:1006500080911F01877080931F0180911F0182602C
:1006600080931F0122C082E090E09A8389831DC09D
:10067000809121018823A1F08091210181508093F4
:10068000210182E090E09A83898380911F018D701F
:1006900080931F0180911F01886080931F0104C017
:1006A00081E090E09A838983000089819A810F908C
:1006B0000F90DF91CF910895CF93DF9300D0CDB706
:1006C000DEB79A83898389819A818130910589F087
:1006D000823091051CF4892B39F032C082309105AB
:1006E000D1F0049741F12CC081E090E09A83898396
:1006F00027C080912201882329F481E090E09A8329
:1007000089831EC0109222011092170184E090E0AC
:100710009A83898315C080911801882329F082E08B
:1007200090E09A8389830CC081E090E09A8389836A
:100730001092180105C082E090E09A83898300003E
:1007400089819A818130910519F0029799F028C02A
:1007500080E290E0FC018081882F90E084709927EE
:10076000892B21F480912001809323018FEF8093C6
:10077000170116C080911801815080931801809153
:100780002301882F90E020911801222F30E002C031
:10079000959587952A95E2F781708093170100005F
:1007A00089819A810F900F90DF91CF910895CF9317
:1007B000DF9300D0CDB7DEB79A83898389819A8190
:1007C000009719F0019731F00AC081E090E09A8318
:1007D000898305C081E090E09A8389830000898144
:1007E0009A81019769F488E290E020911F01FC0151
:1007F000208385E290E020911701FC012083000016
:1008000089819A810F900F90DF91CF910895CF93B6
:10081000DF9300D0CDB7DEB71A82198229813A81E1
:100820004BE0429FC001439F900D11248A5D9E4F73
:10083000FC01108229813A814BE0429FC001439F15
:10084000900D11249C01295D3E4F84E690E0A0E0CC
:10085000B0E0F90180839183A283B38329813A8137
:100860004BE0429FC001439F900D11249C01255DE8
:100870003E4F84E690E0A0E0B0E0F90180839183F0
:10088000A283B38329813A814BE0429FC001439FF9
:10089000900D1124815D9E4F27E432E0FC013183ED
:1008A000208389819A8101969A83898329813A815B
:1008B0004BE0429FC001439F900D11248A5D9E4FE3
:1008C000FC01108229813A814BE0429FC001439F85
:1008D000900D11249C01295D3E4F84E690E0A0E03C
:1008E000B0E0F90180839183A283B38329813A81A7
:1008F0004BE0429FC001439F900D11249C01255D58
:100900003E4F84E690E0A0E0B0E0F901808391835F
:10091000A283B38329813A814BE0429FC001439F68
:10092000900D1124815D9E4F2CE533E0FC01318355
:10093000208389819A8101969A83898329813A81CA
:100940004BE0429FC001439F900D11248A5D9E4F52
:10095000FC01108229813A814BE0429FC001439FF4
:10096000900D11249C01295D3E4F84E690E0A0E0AB
:10097000B0E0F90180839183A283B38329813A8116
:100980004BE0429FC001439F900D11249C01255DC7
:100990003E4F84E690E0A0E0B0E0F90180839183CF
:1009A000A283B38329813A814BE0429FC001439FD8
:1009B000900D1124815D9E4F27ED33E0FC013183C2
:1009C000208389819A8101969A83898329813A813A
:1009D0004BE0429FC001439F900D11248A5D9E4FC2
:1009E000FC01108229813A814BE0429FC001439F64
:1009F000900D11249C01295D3E4F84E690E0A0E01B
:100A0000B0E0F90180839183A283B38329813A8185
:100A10004BE0429FC001439F900D11249C01255D36
:100A20003E4F84E690E0A0E0B0E0F901808391833E
:100A3000A283B38329813A814BE0429FC001439F47
:100A4000900D1124815D9E4F24E033E0FC01318341
:100A5000208300000F900F90DF91CF910895F894BC
:020A6000FFCFC6
:100A6200000000020000000067000000000001001A
:0A0A720000000100010004FF050070
:00000001FF
